{
  "_format": "hh-sol-artifact-1",
  "contractName": "AircraftNFT",
  "sourceName": "contracts/AirCraftNFT.sol",
  "abi": [
    {
      "inputs": [],
      "stateMutability": "nonpayable",
      "type": "constructor"
    },
    {
      "anonymous": false,
      "inputs": [
        {
          "indexed": true,
          "internalType": "address",
          "name": "player",
          "type": "address"
        },
        {
          "indexed": false,
          "internalType": "uint256",
          "name": "points",
          "type": "uint256"
        },
        {
          "indexed": false,
          "internalType": "string",
          "name": "description",
          "type": "string"
        },
        {
          "indexed": false,
          "internalType": "uint256",
          "name": "timestamp",
          "type": "uint256"
        }
      ],
      "name": "AchievementRecorded",
      "type": "event"
    },
    {
      "anonymous": false,
      "inputs": [
        {
          "indexed": true,
          "internalType": "uint256",
          "name": "tokenId",
          "type": "uint256"
        },
        {
          "indexed": false,
          "internalType": "uint256",
          "name": "points",
          "type": "uint256"
        },
        {
          "indexed": false,
          "internalType": "uint256",
          "name": "level",
          "type": "uint256"
        }
      ],
      "name": "AircraftUpdated",
      "type": "event"
    },
    {
      "anonymous": false,
      "inputs": [
        {
          "indexed": true,
          "internalType": "address",
          "name": "owner",
          "type": "address"
        },
        {
          "indexed": true,
          "internalType": "address",
          "name": "approved",
          "type": "address"
        },
        {
          "indexed": true,
          "internalType": "uint256",
          "name": "tokenId",
          "type": "uint256"
        }
      ],
      "name": "Approval",
      "type": "event"
    },
    {
      "anonymous": false,
      "inputs": [
        {
          "indexed": true,
          "internalType": "address",
          "name": "owner",
          "type": "address"
        },
        {
          "indexed": true,
          "internalType": "address",
          "name": "operator",
          "type": "address"
        },
        {
          "indexed": false,
          "internalType": "bool",
          "name": "approved",
          "type": "bool"
        }
      ],
      "name": "ApprovalForAll",
      "type": "event"
    },
    {
      "anonymous": false,
      "inputs": [
        {
          "indexed": true,
          "internalType": "address",
          "name": "previousOwner",
          "type": "address"
        },
        {
          "indexed": true,
          "internalType": "address",
          "name": "newOwner",
          "type": "address"
        }
      ],
      "name": "OwnershipTransferred",
      "type": "event"
    },
    {
      "anonymous": false,
      "inputs": [
        {
          "indexed": true,
          "internalType": "address",
          "name": "from",
          "type": "address"
        },
        {
          "indexed": true,
          "internalType": "address",
          "name": "to",
          "type": "address"
        },
        {
          "indexed": true,
          "internalType": "uint256",
          "name": "tokenId",
          "type": "uint256"
        }
      ],
      "name": "Transfer",
      "type": "event"
    },
    {
      "inputs": [
        {
          "internalType": "uint256",
          "name": "",
          "type": "uint256"
        }
      ],
      "name": "aircrafts",
      "outputs": [
        {
          "internalType": "uint256",
          "name": "points",
          "type": "uint256"
        },
        {
          "internalType": "uint256",
          "name": "level",
          "type": "uint256"
        }
      ],
      "stateMutability": "view",
      "type": "function"
    },
    {
      "inputs": [
        {
          "internalType": "address",
          "name": "to",
          "type": "address"
        },
        {
          "internalType": "uint256",
          "name": "tokenId",
          "type": "uint256"
        }
      ],
      "name": "approve",
      "outputs": [],
      "stateMutability": "nonpayable",
      "type": "function"
    },
    {
      "inputs": [
        {
          "internalType": "address",
          "name": "owner",
          "type": "address"
        }
      ],
      "name": "balanceOf",
      "outputs": [
        {
          "internalType": "uint256",
          "name": "",
          "type": "uint256"
        }
      ],
      "stateMutability": "view",
      "type": "function"
    },
    {
      "inputs": [
        {
          "internalType": "address",
          "name": "_player",
          "type": "address"
        },
        {
          "internalType": "uint256",
          "name": "_index",
          "type": "uint256"
        }
      ],
      "name": "getAchievement",
      "outputs": [
        {
          "internalType": "uint256",
          "name": "",
          "type": "uint256"
        },
        {
          "internalType": "string",
          "name": "",
          "type": "string"
        },
        {
          "internalType": "uint256",
          "name": "",
          "type": "uint256"
        }
      ],
      "stateMutability": "view",
      "type": "function"
    },
    {
      "inputs": [
        {
          "internalType": "address",
          "name": "_player",
          "type": "address"
        }
      ],
      "name": "getAchievementCount",
      "outputs": [
        {
          "internalType": "uint256",
          "name": "",
          "type": "uint256"
        }
      ],
      "stateMutability": "view",
      "type": "function"
    },
    {
      "inputs": [
        {
          "internalType": "uint256",
          "name": "tokenId",
          "type": "uint256"
        }
      ],
      "name": "getAircraftData",
      "outputs": [
        {
          "internalType": "uint256",
          "name": "",
          "type": "uint256"
        },
        {
          "internalType": "uint256",
          "name": "",
          "type": "uint256"
        }
      ],
      "stateMutability": "view",
      "type": "function"
    },
    {
      "inputs": [
        {
          "internalType": "uint256",
          "name": "tokenId",
          "type": "uint256"
        }
      ],
      "name": "getApproved",
      "outputs": [
        {
          "internalType": "address",
          "name": "",
          "type": "address"
        }
      ],
      "stateMutability": "view",
      "type": "function"
    },
    {
      "inputs": [
        {
          "internalType": "address",
          "name": "owner",
          "type": "address"
        },
        {
          "internalType": "address",
          "name": "operator",
          "type": "address"
        }
      ],
      "name": "isApprovedForAll",
      "outputs": [
        {
          "internalType": "bool",
          "name": "",
          "type": "bool"
        }
      ],
      "stateMutability": "view",
      "type": "function"
    },
    {
      "inputs": [
        {
          "internalType": "address",
          "name": "player",
          "type": "address"
        }
      ],
      "name": "mintAircraft",
      "outputs": [
        {
          "internalType": "uint256",
          "name": "",
          "type": "uint256"
        }
      ],
      "stateMutability": "nonpayable",
      "type": "function"
    },
    {
      "inputs": [],
      "name": "name",
      "outputs": [
        {
          "internalType": "string",
          "name": "",
          "type": "string"
        }
      ],
      "stateMutability": "view",
      "type": "function"
    },
    {
      "inputs": [],
      "name": "owner",
      "outputs": [
        {
          "internalType": "address",
          "name": "",
          "type": "address"
        }
      ],
      "stateMutability": "view",
      "type": "function"
    },
    {
      "inputs": [
        {
          "internalType": "uint256",
          "name": "tokenId",
          "type": "uint256"
        }
      ],
      "name": "ownerOf",
      "outputs": [
        {
          "internalType": "address",
          "name": "",
          "type": "address"
        }
      ],
      "stateMutability": "view",
      "type": "function"
    },
    {
      "inputs": [
        {
          "internalType": "address",
          "name": "",
          "type": "address"
        },
        {
          "internalType": "uint256",
          "name": "",
          "type": "uint256"
        }
      ],
      "name": "playerAchievements",
      "outputs": [
        {
          "internalType": "uint256",
          "name": "points",
          "type": "uint256"
        },
        {
          "internalType": "string",
          "name": "description",
          "type": "string"
        },
        {
          "internalType": "uint256",
          "name": "timestamp",
          "type": "uint256"
        }
      ],
      "stateMutability": "view",
      "type": "function"
    },
    {
      "inputs": [
        {
          "internalType": "uint256",
          "name": "_points",
          "type": "uint256"
        },
        {
          "internalType": "string",
          "name": "_description",
          "type": "string"
        }
      ],
      "name": "recordAchievement",
      "outputs": [],
      "stateMutability": "nonpayable",
      "type": "function"
    },
    {
      "inputs": [],
      "name": "renounceOwnership",
      "outputs": [],
      "stateMutability": "nonpayable",
      "type": "function"
    },
    {
      "inputs": [
        {
          "internalType": "address",
          "name": "from",
          "type": "address"
        },
        {
          "internalType": "address",
          "name": "to",
          "type": "address"
        },
        {
          "internalType": "uint256",
          "name": "tokenId",
          "type": "uint256"
        }
      ],
      "name": "safeTransferFrom",
      "outputs": [],
      "stateMutability": "nonpayable",
      "type": "function"
    },
    {
      "inputs": [
        {
          "internalType": "address",
          "name": "from",
          "type": "address"
        },
        {
          "internalType": "address",
          "name": "to",
          "type": "address"
        },
        {
          "internalType": "uint256",
          "name": "tokenId",
          "type": "uint256"
        },
        {
          "internalType": "bytes",
          "name": "data",
          "type": "bytes"
        }
      ],
      "name": "safeTransferFrom",
      "outputs": [],
      "stateMutability": "nonpayable",
      "type": "function"
    },
    {
      "inputs": [
        {
          "internalType": "address",
          "name": "operator",
          "type": "address"
        },
        {
          "internalType": "bool",
          "name": "approved",
          "type": "bool"
        }
      ],
      "name": "setApprovalForAll",
      "outputs": [],
      "stateMutability": "nonpayable",
      "type": "function"
    },
    {
      "inputs": [
        {
          "internalType": "bytes4",
          "name": "interfaceId",
          "type": "bytes4"
        }
      ],
      "name": "supportsInterface",
      "outputs": [
        {
          "internalType": "bool",
          "name": "",
          "type": "bool"
        }
      ],
      "stateMutability": "view",
      "type": "function"
    },
    {
      "inputs": [],
      "name": "symbol",
      "outputs": [
        {
          "internalType": "string",
          "name": "",
          "type": "string"
        }
      ],
      "stateMutability": "view",
      "type": "function"
    },
    {
      "inputs": [
        {
          "internalType": "uint256",
          "name": "index",
          "type": "uint256"
        }
      ],
      "name": "tokenByIndex",
      "outputs": [
        {
          "internalType": "uint256",
          "name": "",
          "type": "uint256"
        }
      ],
      "stateMutability": "view",
      "type": "function"
    },
    {
      "inputs": [
        {
          "internalType": "address",
          "name": "owner",
          "type": "address"
        },
        {
          "internalType": "uint256",
          "name": "index",
          "type": "uint256"
        }
      ],
      "name": "tokenOfOwnerByIndex",
      "outputs": [
        {
          "internalType": "uint256",
          "name": "",
          "type": "uint256"
        }
      ],
      "stateMutability": "view",
      "type": "function"
    },
    {
      "inputs": [
        {
          "internalType": "uint256",
          "name": "tokenId",
          "type": "uint256"
        }
      ],
      "name": "tokenURI",
      "outputs": [
        {
          "internalType": "string",
          "name": "",
          "type": "string"
        }
      ],
      "stateMutability": "view",
      "type": "function"
    },
    {
      "inputs": [],
      "name": "totalSupply",
      "outputs": [
        {
          "internalType": "uint256",
          "name": "",
          "type": "uint256"
        }
      ],
      "stateMutability": "view",
      "type": "function"
    },
    {
      "inputs": [
        {
          "internalType": "address",
          "name": "from",
          "type": "address"
        },
        {
          "internalType": "address",
          "name": "to",
          "type": "address"
        },
        {
          "internalType": "uint256",
          "name": "tokenId",
          "type": "uint256"
        }
      ],
      "name": "transferFrom",
      "outputs": [],
      "stateMutability": "nonpayable",
      "type": "function"
    },
    {
      "inputs": [
        {
          "internalType": "address",
          "name": "newOwner",
          "type": "address"
        }
      ],
      "name": "transferOwnership",
      "outputs": [],
      "stateMutability": "nonpayable",
      "type": "function"
    },
    {
      "inputs": [
        {
          "internalType": "uint256",
          "name": "tokenId",
          "type": "uint256"
        },
        {
          "internalType": "uint256",
          "name": "pointsGained",
          "type": "uint256"
        }
      ],
      "name": "updateAircraft",
      "outputs": [],
      "stateMutability": "nonpayable",
      "type": "function"
    }
  ],
  "bytecode": "0x608060405234801561001057600080fd5b506040518060400160405280600b81526020017f41697263726166744e46540000000000000000000000000000000000000000008152506040518060400160405280600481526020017f414e465400000000000000000000000000000000000000000000000000000000815250816000908161008c91906103de565b50806001908161009c91906103de565b5050506100bb6100b06100c060201b60201c565b6100c860201b60201c565b6104b0565b600033905090565b6000600a60009054906101000a900473ffffffffffffffffffffffffffffffffffffffff16905081600a60006101000a81548173ffffffffffffffffffffffffffffffffffffffff021916908373ffffffffffffffffffffffffffffffffffffffff1602179055508173ffffffffffffffffffffffffffffffffffffffff168173ffffffffffffffffffffffffffffffffffffffff167f8be0079c531659141344cd1fd0a4f28419497f9722a3daafe3b4186f6b6457e060405160405180910390a35050565b600081519050919050565b7f4e487b7100000000000000000000000000000000000000000000000000000000600052604160045260246000fd5b7f4e487b7100000000000000000000000000000000000000000000000000000000600052602260045260246000fd5b6000600282049050600182168061020f57607f821691505b602082108103610222576102216101c8565b5b50919050565b60008190508160005260206000209050919050565b60006020601f8301049050919050565b600082821b905092915050565b60006008830261028a7fffffffffffffffffffffffffffffffffffffffffffffffffffffffffffffffff8261024d565b610294868361024d565b95508019841693508086168417925050509392505050565b6000819050919050565b6000819050919050565b60006102db6102d66102d1846102ac565b6102b6565b6102ac565b9050919050565b6000819050919050565b6102f5836102c0565b610309610301826102e2565b84845461025a565b825550505050565b600090565b61031e610311565b6103298184846102ec565b505050565b5b8181101561034d57610342600082610316565b60018101905061032f565b5050565b601f8211156103925761036381610228565b61036c8461023d565b8101602085101561037b578190505b61038f6103878561023d565b83018261032e565b50505b505050565b600082821c905092915050565b60006103b560001984600802610397565b1980831691505092915050565b60006103ce83836103a4565b9150826002028217905092915050565b6103e78261018e565b67ffffffffffffffff811115610400576103ff610199565b5b61040a82546101f7565b610415828285610351565b600060209050601f8311600181146104485760008415610436578287015190505b61044085826103c2565b8655506104a8565b601f19841661045686610228565b60005b8281101561047e57848901518255600182019150602085019450602081019050610459565b8683101561049b5784890151610497601f8916826103a4565b8355505b6001600288020188555050505b505050505050565b613dfd806104bf6000396000f3fe608060405234801561001057600080fd5b50600436106101a95760003560e01c80636352211e116100f9578063b0e8f64f11610097578063df999dfd11610071578063df999dfd1461051c578063e985e9c51461054e578063f2fde38b1461057e578063f7304a271461059a576101a9565b8063b0e8f64f1461049f578063b88d4fde146104d0578063c87b56dd146104ec576101a9565b80638da5cb5b116100d35780638da5cb5b1461041757806395d89b4114610435578063a22cb46514610453578063a929cfa71461046f576101a9565b80636352211e146103ad57806370a08231146103dd578063715018a61461040d576101a9565b806318160ddd116101665780632f745c59116101405780632f745c591461030157806342842e0e146103315780634f4c8ae11461034d5780634f6ccce71461037d576101a9565b806318160ddd146102955780632259e29e146102b357806323b872dd146102e5576101a9565b806301ffc9a7146101ae57806304a408f5146101de57806306fdde03146101fa578063081812fc14610218578063095ea7b3146102485780630df087b414610264575b600080fd5b6101c860048036038101906101c3919061284f565b6105b6565b6040516101d59190612897565b60405180910390f35b6101f860048036038101906101f39190612a2e565b6105c8565b005b6102026106d3565b60405161020f9190612b09565b60405180910390f35b610232600480360381019061022d9190612b2b565b610765565b60405161023f9190612b99565b60405180910390f35b610262600480360381019061025d9190612be0565b6107ab565b005b61027e60048036038101906102799190612b2b565b6108c2565b60405161028c929190612c2f565b60405180910390f35b61029d610957565b6040516102aa9190612c58565b60405180910390f35b6102cd60048036038101906102c89190612be0565b610964565b6040516102dc93929190612c73565b60405180910390f35b6102ff60048036038101906102fa9190612cb1565b610a9a565b005b61031b60048036038101906103169190612be0565b610afa565b6040516103289190612c58565b60405180910390f35b61034b60048036038101906103469190612cb1565b610b9f565b005b61036760048036038101906103629190612d04565b610bbf565b6040516103749190612c58565b60405180910390f35b61039760048036038101906103929190612b2b565b610c0b565b6040516103a49190612c58565b60405180910390f35b6103c760048036038101906103c29190612b2b565b610c7c565b6040516103d49190612b99565b60405180910390f35b6103f760048036038101906103f29190612d04565b610d02565b6040516104049190612c58565b60405180910390f35b610415610db9565b005b61041f610dcd565b60405161042c9190612b99565b60405180910390f35b61043d610df7565b60405161044a9190612b09565b60405180910390f35b61046d60048036038101906104689190612d5d565b610e89565b005b61048960048036038101906104849190612d04565b610e9f565b6040516104969190612c58565b60405180910390f35b6104b960048036038101906104b49190612b2b565b610f0d565b6040516104c7929190612c2f565b60405180910390f35b6104ea60048036038101906104e59190612e3e565b610f31565b005b61050660048036038101906105019190612b2b565b610f93565b6040516105139190612b09565b60405180910390f35b61053660048036038101906105319190612be0565b610ffb565b60405161054593929190612c73565b60405180910390f35b61056860048036038101906105639190612ec1565b6110ca565b6040516105759190612897565b60405180910390f35b61059860048036038101906105939190612d04565b61115e565b005b6105b460048036038101906105af9190612f01565b6111e1565b005b60006105c1826112c7565b9050919050565b60006040518060600160405280848152602001838152602001428152509050600d60003373ffffffffffffffffffffffffffffffffffffffff1673ffffffffffffffffffffffffffffffffffffffff16815260200190815260200160002081908060018154018082558091505060019003906000526020600020906003020160009091909190915060008201518160000155602082015181600101908161066f919061314d565b506040820151816002015550503373ffffffffffffffffffffffffffffffffffffffff167f50282c0bc7826e0ba709d40a366d74f4a7fc0f670ba42887f28e1e2dfa5089328484426040516106c693929190612c73565b60405180910390a2505050565b6060600080546106e290612f70565b80601f016020809104026020016040519081016040528092919081815260200182805461070e90612f70565b801561075b5780601f106107305761010080835404028352916020019161075b565b820191906000526020600020905b81548152906001019060200180831161073e57829003601f168201915b5050505050905090565b600061077082611341565b6004600083815260200190815260200160002060009054906101000a900473ffffffffffffffffffffffffffffffffffffffff169050919050565b60006107b682610c7c565b90508073ffffffffffffffffffffffffffffffffffffffff168373ffffffffffffffffffffffffffffffffffffffff1603610826576040517f08c379a000000000000000000000000000000000000000000000000000000000815260040161081d90613291565b60405180910390fd5b8073ffffffffffffffffffffffffffffffffffffffff1661084561138c565b73ffffffffffffffffffffffffffffffffffffffff16148061087457506108738161086e61138c565b6110ca565b5b6108b3576040517f08c379a00000000000000000000000000000000000000000000000000000000081526004016108aa90613323565b60405180910390fd5b6108bd8383611394565b505050565b6000806108ce8361144d565b61090d576040517f08c379a00000000000000000000000000000000000000000000000000000000081526004016109049061338f565b60405180910390fd5b6000600c6000858152602001908152602001600020604051806040016040529081600082015481526020016001820154815250509050806000015181602001519250925050915091565b6000600880549050905090565b60006060600080600d60008773ffffffffffffffffffffffffffffffffffffffff1673ffffffffffffffffffffffffffffffffffffffff16815260200190815260200160002085815481106109bc576109bb6133af565b5b9060005260206000209060030201604051806060016040529081600082015481526020016001820180546109ef90612f70565b80601f0160208091040260200160405190810160405280929190818152602001828054610a1b90612f70565b8015610a685780601f10610a3d57610100808354040283529160200191610a68565b820191906000526020600020905b815481529060010190602001808311610a4b57829003601f168201915b505050505081526020016002820154815250509050806000015181602001518260400151935093509350509250925092565b610aab610aa561138c565b826114da565b610aea576040517f08c379a0000000000000000000000000000000000000000000000000000000008152600401610ae190613450565b60405180910390fd5b610af583838361156f565b505050565b6000610b0583610d02565b8210610b46576040517f08c379a0000000000000000000000000000000000000000000000000000000008152600401610b3d906134e2565b60405180910390fd5b600660008473ffffffffffffffffffffffffffffffffffffffff1673ffffffffffffffffffffffffffffffffffffffff168152602001908152602001600020600083815260200190815260200160002054905092915050565b610bba83838360405180602001604052806000815250610f31565b505050565b6000600d60008373ffffffffffffffffffffffffffffffffffffffff1673ffffffffffffffffffffffffffffffffffffffff168152602001908152602001600020805490509050919050565b6000610c15610957565b8210610c56576040517f08c379a0000000000000000000000000000000000000000000000000000000008152600401610c4d90613574565b60405180910390fd5b60088281548110610c6a57610c696133af565b5b90600052602060002001549050919050565b600080610c8883611868565b9050600073ffffffffffffffffffffffffffffffffffffffff168173ffffffffffffffffffffffffffffffffffffffff1603610cf9576040517f08c379a0000000000000000000000000000000000000000000000000000000008152600401610cf0906135e0565b60405180910390fd5b80915050919050565b60008073ffffffffffffffffffffffffffffffffffffffff168273ffffffffffffffffffffffffffffffffffffffff1603610d72576040517f08c379a0000000000000000000000000000000000000000000000000000000008152600401610d6990613672565b60405180910390fd5b600360008373ffffffffffffffffffffffffffffffffffffffff1673ffffffffffffffffffffffffffffffffffffffff168152602001908152602001600020549050919050565b610dc16118a5565b610dcb6000611923565b565b6000600a60009054906101000a900473ffffffffffffffffffffffffffffffffffffffff16905090565b606060018054610e0690612f70565b80601f0160208091040260200160405190810160405280929190818152602001828054610e3290612f70565b8015610e7f5780601f10610e5457610100808354040283529160200191610e7f565b820191906000526020600020905b815481529060010190602001808311610e6257829003601f168201915b5050505050905090565b610e9b610e9461138c565b83836119e9565b5050565b6000610eab600b611b55565b6000610eb7600b611b6b565b90506040518060400160405280600081526020016001815250600c60008381526020019081526020016000206000820151816000015560208201518160010155905050610f048382611b79565b80915050919050565b600c6020528060005260406000206000915090508060000154908060010154905082565b610f42610f3c61138c565b836114da565b610f81576040517f08c379a0000000000000000000000000000000000000000000000000000000008152600401610f7890613450565b60405180910390fd5b610f8d84848484611d96565b50505050565b6060610f9e82611341565b6000610fa8611df2565b90506000815111610fc85760405180602001604052806000815250610ff3565b80610fd284611e09565b604051602001610fe39291906136ce565b6040516020818303038152906040525b915050919050565b600d602052816000526040600020818154811061101757600080fd5b90600052602060002090600302016000915091505080600001549080600101805461104190612f70565b80601f016020809104026020016040519081016040528092919081815260200182805461106d90612f70565b80156110ba5780601f1061108f576101008083540402835291602001916110ba565b820191906000526020600020905b81548152906001019060200180831161109d57829003601f168201915b5050505050908060020154905083565b6000600560008473ffffffffffffffffffffffffffffffffffffffff1673ffffffffffffffffffffffffffffffffffffffff16815260200190815260200160002060008373ffffffffffffffffffffffffffffffffffffffff1673ffffffffffffffffffffffffffffffffffffffff16815260200190815260200160002060009054906101000a900460ff16905092915050565b6111666118a5565b600073ffffffffffffffffffffffffffffffffffffffff168173ffffffffffffffffffffffffffffffffffffffff16036111d5576040517f08c379a00000000000000000000000000000000000000000000000000000000081526004016111cc90613764565b60405180910390fd5b6111de81611923565b50565b6111ea8261144d565b611229576040517f08c379a00000000000000000000000000000000000000000000000000000000081526004016112209061338f565b60405180910390fd5b6000600c600084815260200190815260200160002090508181600001600082825461125491906137b3565b9250508190555060016064826000015461126e9190613816565b61127891906137b3565b8160010181905550827f4aefdbc05a51246589232d0a4bd6fd03bb35e2cfa1e9d72aef85aafc4c5e7c6e826000015483600101546040516112ba929190612c2f565b60405180910390a2505050565b60007f780e9d63000000000000000000000000000000000000000000000000000000007bffffffffffffffffffffffffffffffffffffffffffffffffffffffff1916827bffffffffffffffffffffffffffffffffffffffffffffffffffffffff1916148061133a575061133982611ed7565b5b9050919050565b61134a81611fb9565b611389576040517f08c379a0000000000000000000000000000000000000000000000000000000008152600401611380906135e0565b60405180910390fd5b50565b600033905090565b816004600083815260200190815260200160002060006101000a81548173ffffffffffffffffffffffffffffffffffffffff021916908373ffffffffffffffffffffffffffffffffffffffff160217905550808273ffffffffffffffffffffffffffffffffffffffff1661140783610c7c565b73ffffffffffffffffffffffffffffffffffffffff167f8c5be1e5ebec7d5bd14f71427d1e84f3dd0314c0f7b2291e5b200ac8c7c3b92560405160405180910390a45050565b60003073ffffffffffffffffffffffffffffffffffffffff16636352211e836040518263ffffffff1660e01b81526004016114889190612c58565b602060405180830381865afa9250505080156114c257506040513d601f19601f820116820180604052508101906114bf919061385c565b60015b6114cf57600090506114d5565b50600190505b919050565b6000806114e683610c7c565b90508073ffffffffffffffffffffffffffffffffffffffff168473ffffffffffffffffffffffffffffffffffffffff161480611528575061152781856110ca565b5b8061156657508373ffffffffffffffffffffffffffffffffffffffff1661154e84610765565b73ffffffffffffffffffffffffffffffffffffffff16145b91505092915050565b8273ffffffffffffffffffffffffffffffffffffffff1661158f82610c7c565b73ffffffffffffffffffffffffffffffffffffffff16146115e5576040517f08c379a00000000000000000000000000000000000000000000000000000000081526004016115dc906138fb565b60405180910390fd5b600073ffffffffffffffffffffffffffffffffffffffff168273ffffffffffffffffffffffffffffffffffffffff1603611654576040517f08c379a000000000000000000000000000000000000000000000000000000000815260040161164b9061398d565b60405180910390fd5b6116618383836001611ffa565b8273ffffffffffffffffffffffffffffffffffffffff1661168182610c7c565b73ffffffffffffffffffffffffffffffffffffffff16146116d7576040517f08c379a00000000000000000000000000000000000000000000000000000000081526004016116ce906138fb565b60405180910390fd5b6004600082815260200190815260200160002060006101000a81549073ffffffffffffffffffffffffffffffffffffffff02191690556001600360008573ffffffffffffffffffffffffffffffffffffffff1673ffffffffffffffffffffffffffffffffffffffff168152602001908152602001600020600082825403925050819055506001600360008473ffffffffffffffffffffffffffffffffffffffff1673ffffffffffffffffffffffffffffffffffffffff16815260200190815260200160002060008282540192505081905550816002600083815260200190815260200160002060006101000a81548173ffffffffffffffffffffffffffffffffffffffff021916908373ffffffffffffffffffffffffffffffffffffffff160217905550808273ffffffffffffffffffffffffffffffffffffffff168473ffffffffffffffffffffffffffffffffffffffff167fddf252ad1be2c89b69c2b068fc378daa952ba7f163c4a11628f55a4df523b3ef60405160405180910390a4611863838383600161200c565b505050565b60006002600083815260200190815260200160002060009054906101000a900473ffffffffffffffffffffffffffffffffffffffff169050919050565b6118ad61138c565b73ffffffffffffffffffffffffffffffffffffffff166118cb610dcd565b73ffffffffffffffffffffffffffffffffffffffff1614611921576040517f08c379a0000000000000000000000000000000000000000000000000000000008152600401611918906139f9565b60405180910390fd5b565b6000600a60009054906101000a900473ffffffffffffffffffffffffffffffffffffffff16905081600a60006101000a81548173ffffffffffffffffffffffffffffffffffffffff021916908373ffffffffffffffffffffffffffffffffffffffff1602179055508173ffffffffffffffffffffffffffffffffffffffff168173ffffffffffffffffffffffffffffffffffffffff167f8be0079c531659141344cd1fd0a4f28419497f9722a3daafe3b4186f6b6457e060405160405180910390a35050565b8173ffffffffffffffffffffffffffffffffffffffff168373ffffffffffffffffffffffffffffffffffffffff1603611a57576040517f08c379a0000000000000000000000000000000000000000000000000000000008152600401611a4e90613a65565b60405180910390fd5b80600560008573ffffffffffffffffffffffffffffffffffffffff1673ffffffffffffffffffffffffffffffffffffffff16815260200190815260200160002060008473ffffffffffffffffffffffffffffffffffffffff1673ffffffffffffffffffffffffffffffffffffffff16815260200190815260200160002060006101000a81548160ff0219169083151502179055508173ffffffffffffffffffffffffffffffffffffffff168373ffffffffffffffffffffffffffffffffffffffff167f17307eab39ab6107e8899845ad3d59bd9653f200f220920489ca2b5937696c3183604051611b489190612897565b60405180910390a3505050565b6001816000016000828254019250508190555050565b600081600001549050919050565b600073ffffffffffffffffffffffffffffffffffffffff168273ffffffffffffffffffffffffffffffffffffffff1603611be8576040517f08c379a0000000000000000000000000000000000000000000000000000000008152600401611bdf90613ad1565b60405180910390fd5b611bf181611fb9565b15611c31576040517f08c379a0000000000000000000000000000000000000000000000000000000008152600401611c2890613b3d565b60405180910390fd5b611c3f600083836001611ffa565b611c4881611fb9565b15611c88576040517f08c379a0000000000000000000000000000000000000000000000000000000008152600401611c7f90613b3d565b60405180910390fd5b6001600360008473ffffffffffffffffffffffffffffffffffffffff1673ffffffffffffffffffffffffffffffffffffffff16815260200190815260200160002060008282540192505081905550816002600083815260200190815260200160002060006101000a81548173ffffffffffffffffffffffffffffffffffffffff021916908373ffffffffffffffffffffffffffffffffffffffff160217905550808273ffffffffffffffffffffffffffffffffffffffff16600073ffffffffffffffffffffffffffffffffffffffff167fddf252ad1be2c89b69c2b068fc378daa952ba7f163c4a11628f55a4df523b3ef60405160405180910390a4611d9260008383600161200c565b5050565b611da184848461156f565b611dad84848484612012565b611dec576040517f08c379a0000000000000000000000000000000000000000000000000000000008152600401611de390613bcf565b60405180910390fd5b50505050565b606060405180602001604052806000815250905090565b606060006001611e1884612199565b01905060008167ffffffffffffffff811115611e3757611e36612903565b5b6040519080825280601f01601f191660200182016040528015611e695781602001600182028036833780820191505090505b509050600082602001820190505b600115611ecc578080600190039150507f3031323334353637383961626364656600000000000000000000000000000000600a86061a8153600a8581611ec057611ebf6137e7565b5b04945060008503611e77575b819350505050919050565b60007f80ac58cd000000000000000000000000000000000000000000000000000000007bffffffffffffffffffffffffffffffffffffffffffffffffffffffff1916827bffffffffffffffffffffffffffffffffffffffffffffffffffffffff19161480611fa257507f5b5e139f000000000000000000000000000000000000000000000000000000007bffffffffffffffffffffffffffffffffffffffffffffffffffffffff1916827bffffffffffffffffffffffffffffffffffffffffffffffffffffffff1916145b80611fb25750611fb1826122ec565b5b9050919050565b60008073ffffffffffffffffffffffffffffffffffffffff16611fdb83611868565b73ffffffffffffffffffffffffffffffffffffffff1614159050919050565b61200684848484612356565b50505050565b50505050565b60006120338473ffffffffffffffffffffffffffffffffffffffff166124b4565b1561218c578373ffffffffffffffffffffffffffffffffffffffff1663150b7a0261205c61138c565b8786866040518563ffffffff1660e01b815260040161207e9493929190613c44565b6020604051808303816000875af19250505080156120ba57506040513d601f19601f820116820180604052508101906120b79190613ca5565b60015b61213c573d80600081146120ea576040519150601f19603f3d011682016040523d82523d6000602084013e6120ef565b606091505b506000815103612134576040517f08c379a000000000000000000000000000000000000000000000000000000000815260040161212b90613bcf565b60405180910390fd5b805181602001fd5b63150b7a0260e01b7bffffffffffffffffffffffffffffffffffffffffffffffffffffffff1916817bffffffffffffffffffffffffffffffffffffffffffffffffffffffff191614915050612191565b600190505b949350505050565b600080600090507a184f03e93ff9f4daa797ed6e38ed64bf6a1f01000000000000000083106121f7577a184f03e93ff9f4daa797ed6e38ed64bf6a1f01000000000000000083816121ed576121ec6137e7565b5b0492506040810190505b6d04ee2d6d415b85acef81000000008310612234576d04ee2d6d415b85acef8100000000838161222a576122296137e7565b5b0492506020810190505b662386f26fc10000831061226357662386f26fc100008381612259576122586137e7565b5b0492506010810190505b6305f5e100831061228c576305f5e1008381612282576122816137e7565b5b0492506008810190505b61271083106122b15761271083816122a7576122a66137e7565b5b0492506004810190505b606483106122d457606483816122ca576122c96137e7565b5b0492506002810190505b600a83106122e3576001810190505b80915050919050565b60007f01ffc9a7000000000000000000000000000000000000000000000000000000007bffffffffffffffffffffffffffffffffffffffffffffffffffffffff1916827bffffffffffffffffffffffffffffffffffffffffffffffffffffffff1916149050919050565b612362848484846124d7565b60018111156123a6576040517f08c379a000000000000000000000000000000000000000000000000000000000815260040161239d90613d44565b60405180910390fd5b6000829050600073ffffffffffffffffffffffffffffffffffffffff168573ffffffffffffffffffffffffffffffffffffffff16036123ed576123e8816124dd565b61242c565b8373ffffffffffffffffffffffffffffffffffffffff168573ffffffffffffffffffffffffffffffffffffffff161461242b5761242a8582612526565b5b5b600073ffffffffffffffffffffffffffffffffffffffff168473ffffffffffffffffffffffffffffffffffffffff160361246e5761246981612693565b6124ad565b8473ffffffffffffffffffffffffffffffffffffffff168473ffffffffffffffffffffffffffffffffffffffff16146124ac576124ab8482612764565b5b5b5050505050565b6000808273ffffffffffffffffffffffffffffffffffffffff163b119050919050565b50505050565b6008805490506009600083815260200190815260200160002081905550600881908060018154018082558091505060019003906000526020600020016000909190919091505550565b6000600161253384610d02565b61253d9190613d64565b9050600060076000848152602001908152602001600020549050818114612622576000600660008673ffffffffffffffffffffffffffffffffffffffff1673ffffffffffffffffffffffffffffffffffffffff168152602001908152602001600020600084815260200190815260200160002054905080600660008773ffffffffffffffffffffffffffffffffffffffff1673ffffffffffffffffffffffffffffffffffffffff168152602001908152602001600020600084815260200190815260200160002081905550816007600083815260200190815260200160002081905550505b6007600084815260200190815260200160002060009055600660008573ffffffffffffffffffffffffffffffffffffffff1673ffffffffffffffffffffffffffffffffffffffff16815260200190815260200160002060008381526020019081526020016000206000905550505050565b600060016008805490506126a79190613d64565b90506000600960008481526020019081526020016000205490506000600883815481106126d7576126d66133af565b5b9060005260206000200154905080600883815481106126f9576126f86133af565b5b90600052602060002001819055508160096000838152602001908152602001600020819055506009600085815260200190815260200160002060009055600880548061274857612747613d98565b5b6001900381819060005260206000200160009055905550505050565b600061276f83610d02565b905081600660008573ffffffffffffffffffffffffffffffffffffffff1673ffffffffffffffffffffffffffffffffffffffff168152602001908152602001600020600083815260200190815260200160002081905550806007600084815260200190815260200160002081905550505050565b6000604051905090565b600080fd5b600080fd5b60007fffffffff0000000000000000000000000000000000000000000000000000000082169050919050565b61282c816127f7565b811461283757600080fd5b50565b60008135905061284981612823565b92915050565b600060208284031215612865576128646127ed565b5b60006128738482850161283a565b91505092915050565b60008115159050919050565b6128918161287c565b82525050565b60006020820190506128ac6000830184612888565b92915050565b6000819050919050565b6128c5816128b2565b81146128d057600080fd5b50565b6000813590506128e2816128bc565b92915050565b600080fd5b600080fd5b6000601f19601f8301169050919050565b7f4e487b7100000000000000000000000000000000000000000000000000000000600052604160045260246000fd5b61293b826128f2565b810181811067ffffffffffffffff8211171561295a57612959612903565b5b80604052505050565b600061296d6127e3565b90506129798282612932565b919050565b600067ffffffffffffffff82111561299957612998612903565b5b6129a2826128f2565b9050602081019050919050565b82818337600083830152505050565b60006129d16129cc8461297e565b612963565b9050828152602081018484840111156129ed576129ec6128ed565b5b6129f88482856129af565b509392505050565b600082601f830112612a1557612a146128e8565b5b8135612a258482602086016129be565b91505092915050565b60008060408385031215612a4557612a446127ed565b5b6000612a53858286016128d3565b925050602083013567ffffffffffffffff811115612a7457612a736127f2565b5b612a8085828601612a00565b9150509250929050565b600081519050919050565b600082825260208201905092915050565b60005b83811015612ac4578082015181840152602081019050612aa9565b60008484015250505050565b6000612adb82612a8a565b612ae58185612a95565b9350612af5818560208601612aa6565b612afe816128f2565b840191505092915050565b60006020820190508181036000830152612b238184612ad0565b905092915050565b600060208284031215612b4157612b406127ed565b5b6000612b4f848285016128d3565b91505092915050565b600073ffffffffffffffffffffffffffffffffffffffff82169050919050565b6000612b8382612b58565b9050919050565b612b9381612b78565b82525050565b6000602082019050612bae6000830184612b8a565b92915050565b612bbd81612b78565b8114612bc857600080fd5b50565b600081359050612bda81612bb4565b92915050565b60008060408385031215612bf757612bf66127ed565b5b6000612c0585828601612bcb565b9250506020612c16858286016128d3565b9150509250929050565b612c29816128b2565b82525050565b6000604082019050612c446000830185612c20565b612c516020830184612c20565b9392505050565b6000602082019050612c6d6000830184612c20565b92915050565b6000606082019050612c886000830186612c20565b8181036020830152612c9a8185612ad0565b9050612ca96040830184612c20565b949350505050565b600080600060608486031215612cca57612cc96127ed565b5b6000612cd886828701612bcb565b9350506020612ce986828701612bcb565b9250506040612cfa868287016128d3565b9150509250925092565b600060208284031215612d1a57612d196127ed565b5b6000612d2884828501612bcb565b91505092915050565b612d3a8161287c565b8114612d4557600080fd5b50565b600081359050612d5781612d31565b92915050565b60008060408385031215612d7457612d736127ed565b5b6000612d8285828601612bcb565b9250506020612d9385828601612d48565b9150509250929050565b600067ffffffffffffffff821115612db857612db7612903565b5b612dc1826128f2565b9050602081019050919050565b6000612de1612ddc84612d9d565b612963565b905082815260208101848484011115612dfd57612dfc6128ed565b5b612e088482856129af565b509392505050565b600082601f830112612e2557612e246128e8565b5b8135612e35848260208601612dce565b91505092915050565b60008060008060808587031215612e5857612e576127ed565b5b6000612e6687828801612bcb565b9450506020612e7787828801612bcb565b9350506040612e88878288016128d3565b925050606085013567ffffffffffffffff811115612ea957612ea86127f2565b5b612eb587828801612e10565b91505092959194509250565b60008060408385031215612ed857612ed76127ed565b5b6000612ee685828601612bcb565b9250506020612ef785828601612bcb565b9150509250929050565b60008060408385031215612f1857612f176127ed565b5b6000612f26858286016128d3565b9250506020612f37858286016128d3565b9150509250929050565b7f4e487b7100000000000000000000000000000000000000000000000000000000600052602260045260246000fd5b60006002820490506001821680612f8857607f821691505b602082108103612f9b57612f9a612f41565b5b50919050565b60008190508160005260206000209050919050565b60006020601f8301049050919050565b600082821b905092915050565b6000600883026130037fffffffffffffffffffffffffffffffffffffffffffffffffffffffffffffffff82612fc6565b61300d8683612fc6565b95508019841693508086168417925050509392505050565b6000819050919050565b600061304a613045613040846128b2565b613025565b6128b2565b9050919050565b6000819050919050565b6130648361302f565b61307861307082613051565b848454612fd3565b825550505050565b600090565b61308d613080565b61309881848461305b565b505050565b5b818110156130bc576130b1600082613085565b60018101905061309e565b5050565b601f821115613101576130d281612fa1565b6130db84612fb6565b810160208510156130ea578190505b6130fe6130f685612fb6565b83018261309d565b50505b505050565b600082821c905092915050565b600061312460001984600802613106565b1980831691505092915050565b600061313d8383613113565b9150826002028217905092915050565b61315682612a8a565b67ffffffffffffffff81111561316f5761316e612903565b5b6131798254612f70565b6131848282856130c0565b600060209050601f8311600181146131b757600084156131a5578287015190505b6131af8582613131565b865550613217565b601f1984166131c586612fa1565b60005b828110156131ed578489015182556001820191506020850194506020810190506131c8565b8683101561320a5784890151613206601f891682613113565b8355505b6001600288020188555050505b505050505050565b7f4552433732313a20617070726f76616c20746f2063757272656e74206f776e6560008201527f7200000000000000000000000000000000000000000000000000000000000000602082015250565b600061327b602183612a95565b91506132868261321f565b604082019050919050565b600060208201905081810360008301526132aa8161326e565b9050919050565b7f4552433732313a20617070726f76652063616c6c6572206973206e6f7420746f60008201527f6b656e206f776e6572206f7220617070726f76656420666f7220616c6c000000602082015250565b600061330d603d83612a95565b9150613318826132b1565b604082019050919050565b6000602082019050818103600083015261333c81613300565b9050919050565b7f416972637261667420646f6573206e6f74206578697374000000000000000000600082015250565b6000613379601783612a95565b915061338482613343565b602082019050919050565b600060208201905081810360008301526133a88161336c565b9050919050565b7f4e487b7100000000000000000000000000000000000000000000000000000000600052603260045260246000fd5b7f4552433732313a2063616c6c6572206973206e6f7420746f6b656e206f776e6560008201527f72206f7220617070726f76656400000000000000000000000000000000000000602082015250565b600061343a602d83612a95565b9150613445826133de565b604082019050919050565b600060208201905081810360008301526134698161342d565b9050919050565b7f455243373231456e756d657261626c653a206f776e657220696e646578206f7560008201527f74206f6620626f756e6473000000000000000000000000000000000000000000602082015250565b60006134cc602b83612a95565b91506134d782613470565b604082019050919050565b600060208201905081810360008301526134fb816134bf565b9050919050565b7f455243373231456e756d657261626c653a20676c6f62616c20696e646578206f60008201527f7574206f6620626f756e64730000000000000000000000000000000000000000602082015250565b600061355e602c83612a95565b915061356982613502565b604082019050919050565b6000602082019050818103600083015261358d81613551565b9050919050565b7f4552433732313a20696e76616c696420746f6b656e2049440000000000000000600082015250565b60006135ca601883612a95565b91506135d582613594565b602082019050919050565b600060208201905081810360008301526135f9816135bd565b9050919050565b7f4552433732313a2061646472657373207a65726f206973206e6f74206120766160008201527f6c6964206f776e65720000000000000000000000000000000000000000000000602082015250565b600061365c602983612a95565b915061366782613600565b604082019050919050565b6000602082019050818103600083015261368b8161364f565b9050919050565b600081905092915050565b60006136a882612a8a565b6136b28185613692565b93506136c2818560208601612aa6565b80840191505092915050565b60006136da828561369d565b91506136e6828461369d565b91508190509392505050565b7f4f776e61626c653a206e6577206f776e657220697320746865207a65726f206160008201527f6464726573730000000000000000000000000000000000000000000000000000602082015250565b600061374e602683612a95565b9150613759826136f2565b604082019050919050565b6000602082019050818103600083015261377d81613741565b9050919050565b7f4e487b7100000000000000000000000000000000000000000000000000000000600052601160045260246000fd5b60006137be826128b2565b91506137c9836128b2565b92508282019050808211156137e1576137e0613784565b5b92915050565b7f4e487b7100000000000000000000000000000000000000000000000000000000600052601260045260246000fd5b6000613821826128b2565b915061382c836128b2565b92508261383c5761383b6137e7565b5b828204905092915050565b60008151905061385681612bb4565b92915050565b600060208284031215613872576138716127ed565b5b600061388084828501613847565b91505092915050565b7f4552433732313a207472616e736665722066726f6d20696e636f72726563742060008201527f6f776e6572000000000000000000000000000000000000000000000000000000602082015250565b60006138e5602583612a95565b91506138f082613889565b604082019050919050565b60006020820190508181036000830152613914816138d8565b9050919050565b7f4552433732313a207472616e7366657220746f20746865207a65726f2061646460008201527f7265737300000000000000000000000000000000000000000000000000000000602082015250565b6000613977602483612a95565b91506139828261391b565b604082019050919050565b600060208201905081810360008301526139a68161396a565b9050919050565b7f4f776e61626c653a2063616c6c6572206973206e6f7420746865206f776e6572600082015250565b60006139e3602083612a95565b91506139ee826139ad565b602082019050919050565b60006020820190508181036000830152613a12816139d6565b9050919050565b7f4552433732313a20617070726f766520746f2063616c6c657200000000000000600082015250565b6000613a4f601983612a95565b9150613a5a82613a19565b602082019050919050565b60006020820190508181036000830152613a7e81613a42565b9050919050565b7f4552433732313a206d696e7420746f20746865207a65726f2061646472657373600082015250565b6000613abb602083612a95565b9150613ac682613a85565b602082019050919050565b60006020820190508181036000830152613aea81613aae565b9050919050565b7f4552433732313a20746f6b656e20616c7265616479206d696e74656400000000600082015250565b6000613b27601c83612a95565b9150613b3282613af1565b602082019050919050565b60006020820190508181036000830152613b5681613b1a565b9050919050565b7f4552433732313a207472616e7366657220746f206e6f6e20455243373231526560008201527f63656976657220696d706c656d656e7465720000000000000000000000000000602082015250565b6000613bb9603283612a95565b9150613bc482613b5d565b604082019050919050565b60006020820190508181036000830152613be881613bac565b9050919050565b600081519050919050565b600082825260208201905092915050565b6000613c1682613bef565b613c208185613bfa565b9350613c30818560208601612aa6565b613c39816128f2565b840191505092915050565b6000608082019050613c596000830187612b8a565b613c666020830186612b8a565b613c736040830185612c20565b8181036060830152613c858184613c0b565b905095945050505050565b600081519050613c9f81612823565b92915050565b600060208284031215613cbb57613cba6127ed565b5b6000613cc984828501613c90565b91505092915050565b7f455243373231456e756d657261626c653a20636f6e736563757469766520747260008201527f616e7366657273206e6f7420737570706f727465640000000000000000000000602082015250565b6000613d2e603583612a95565b9150613d3982613cd2565b604082019050919050565b60006020820190508181036000830152613d5d81613d21565b9050919050565b6000613d6f826128b2565b9150613d7a836128b2565b9250828203905081811115613d9257613d91613784565b5b92915050565b7f4e487b7100000000000000000000000000000000000000000000000000000000600052603160045260246000fdfea2646970667358221220970964dbc783501d602d814bbba9948c4b0caceca0bebd043bdb382ae7e9a9ab64736f6c634300081b0033",
  "linkReferences": {},
  "deployedLinkReferences": {}
}